{
  "contractName": "DonorDetails",
  "abi": [
    {
      "inputs": [],
      "payable": false,
      "stateMutability": "nonpayable",
      "type": "constructor"
    },
    {
      "constant": true,
      "inputs": [
        {
          "internalType": "address",
          "name": "",
          "type": "address"
        }
      ],
      "name": "donorAddressToId",
      "outputs": [
        {
          "internalType": "uint256",
          "name": "",
          "type": "uint256"
        }
      ],
      "payable": false,
      "stateMutability": "view",
      "type": "function"
    },
    {
      "constant": true,
      "inputs": [],
      "name": "totalDonors",
      "outputs": [
        {
          "internalType": "uint256",
          "name": "",
          "type": "uint256"
        }
      ],
      "payable": false,
      "stateMutability": "view",
      "type": "function"
    }
  ],
  "bytecode": "0x608060405234801561001057600080fd5b506000808190555060fb806100266000396000f3fe6080604052348015600f57600080fd5b506004361060325760003560e01c806325c302e4146037578063cfaa093f146053575b600080fd5b603d60a8565b6040518082815260200191505060405180910390f35b609260048036036020811015606757600080fd5b81019080803573ffffffffffffffffffffffffffffffffffffffff16906020019092919050505060ae565b6040518082815260200191505060405180910390f35b60005481565b6001602052806000526040600020600091509050548156fea265627a7a72315820727ba19934e89887606ba9a8651a0c702546720a5aacf218464cc6e42e04021a64736f6c63430005100032",
  "source": "// SPDX-License-Identifier: MIT\r\npragma solidity >=0.4.21 <0.7.0;\r\n\r\ncontract DonorDetails {\r\n    struct Organ {\r\n        bool isEyes;\r\n        bool isKidney;\r\n        bool isLiver;\r\n        bool isHeart;\r\n        bool isLungs;\r\n    }\r\n\r\n    struct Donor {\r\n        address donor;\r\n        uint64 idProof;\r\n        string bloodGroup;\r\n        string name;\r\n        string Address;\r\n        bool donationStatus;\r\n        Organ organ;\r\n    }\r\n\r\n    uint256 public totalDonors;\r\n\r\n    mapping(address => uint256) public donorAddressToId;\r\n\r\n    constructor() public {\r\n        totalDonors = 0;\r\n    }\r\n}\r\n",
  "sourcePath": "C:\\Users\\mothi\\Desktop\\lifeVest\\contracts\\DonorDetails.sol",
  "compiler": {
    "name": "solc",
    "version": "0.5.16+commit.9c3226ce.Emscripten.clang"
  },
  "schemaVersion": "3.3.1",
  "updatedAt": "2020-10-31T09:39:59.502Z",
  "devdoc": {
    "methods": {}
  },
  "userdoc": {
    "methods": {}
  }
}