{
  "contractName": "DonorContract",
  "abi": [
    {
      "anonymous": false,
      "inputs": [
        {
          "indexed": false,
          "internalType": "address",
          "name": "_donor",
          "type": "address"
        },
        {
          "indexed": false,
          "internalType": "uint256",
          "name": "_id",
          "type": "uint256"
        }
      ],
      "name": "NewDonor",
      "type": "event"
    },
    {
      "constant": true,
      "inputs": [
        {
          "internalType": "address",
          "name": "",
          "type": "address"
        }
      ],
      "name": "donorAddressToId",
      "outputs": [
        {
          "internalType": "uint256",
          "name": "",
          "type": "uint256"
        }
      ],
      "payable": false,
      "stateMutability": "view",
      "type": "function"
    },
    {
      "constant": true,
      "inputs": [],
      "name": "totalDonors",
      "outputs": [
        {
          "internalType": "uint256",
          "name": "",
          "type": "uint256"
        }
      ],
      "payable": false,
      "stateMutability": "view",
      "type": "function"
    },
    {
      "constant": false,
      "inputs": [
        {
          "internalType": "uint64",
          "name": "_idProof",
          "type": "uint64"
        },
        {
          "internalType": "string",
          "name": "_bloodGroup",
          "type": "string"
        },
        {
          "internalType": "string",
          "name": "_name",
          "type": "string"
        },
        {
          "internalType": "string",
          "name": "_Address",
          "type": "string"
        },
        {
          "internalType": "bool",
          "name": "_isEyes",
          "type": "bool"
        },
        {
          "internalType": "bool",
          "name": "_isKidney",
          "type": "bool"
        },
        {
          "internalType": "bool",
          "name": "_isLiver",
          "type": "bool"
        },
        {
          "internalType": "bool",
          "name": "_isHeart",
          "type": "bool"
        },
        {
          "internalType": "bool",
          "name": "_isLungs",
          "type": "bool"
        }
      ],
      "name": "createDonor",
      "outputs": [],
      "payable": false,
      "stateMutability": "nonpayable",
      "type": "function"
    },
    {
      "constant": false,
      "inputs": [
        {
          "internalType": "uint256",
          "name": "_id",
          "type": "uint256"
        }
      ],
      "name": "deleteDonor",
      "outputs": [],
      "payable": false,
      "stateMutability": "nonpayable",
      "type": "function"
    },
    {
      "constant": true,
      "inputs": [
        {
          "internalType": "uint256",
          "name": "_id",
          "type": "uint256"
        }
      ],
      "name": "donorDetails",
      "outputs": [
        {
          "internalType": "address",
          "name": "",
          "type": "address"
        },
        {
          "internalType": "uint64",
          "name": "",
          "type": "uint64"
        },
        {
          "internalType": "string",
          "name": "",
          "type": "string"
        },
        {
          "internalType": "string",
          "name": "",
          "type": "string"
        },
        {
          "internalType": "string",
          "name": "",
          "type": "string"
        },
        {
          "internalType": "bool",
          "name": "",
          "type": "bool"
        },
        {
          "internalType": "bool",
          "name": "",
          "type": "bool"
        },
        {
          "internalType": "bool",
          "name": "",
          "type": "bool"
        },
        {
          "internalType": "bool",
          "name": "",
          "type": "bool"
        },
        {
          "internalType": "bool",
          "name": "",
          "type": "bool"
        },
        {
          "internalType": "bool",
          "name": "",
          "type": "bool"
        }
      ],
      "payable": false,
      "stateMutability": "view",
      "type": "function"
    }
  ],
  "bytecode": "0x6080604052600080819055506114ff8061001a6000396000f3fe608060405234801561001057600080fd5b50600436106100575760003560e01c806325c302e41461005c5780636833b90d1461007a578063925ee846146102b4578063cf1e4c4c146102e2578063cfaa093f146104f1575b600080fd5b610064610549565b6040518082815260200191505060405180910390f35b6102b2600480360361012081101561009157600080fd5b81019080803567ffffffffffffffff169060200190929190803590602001906401000000008111156100c257600080fd5b8201836020820111156100d457600080fd5b803590602001918460018302840111640100000000831117156100f657600080fd5b91908080601f016020809104026020016040519081016040528093929190818152602001838380828437600081840152601f19601f8201169050808301925050505050505091929192908035906020019064010000000081111561015957600080fd5b82018360208201111561016b57600080fd5b8035906020019184600183028401116401000000008311171561018d57600080fd5b91908080601f016020809104026020016040519081016040528093929190818152602001838380828437600081840152601f19601f820116905080830192505050505050509192919290803590602001906401000000008111156101f057600080fd5b82018360208201111561020257600080fd5b8035906020019184600183028401116401000000008311171561022457600080fd5b91908080601f016020809104026020016040519081016040528093929190818152602001838380828437600081840152601f19601f82011690508083019250505050505050919291929080351515906020019092919080351515906020019092919080351515906020019092919080351515906020019092919080351515906020019092919050505061054f565b005b6102e0600480360360208110156102ca57600080fd5b8101908080359060200190929190505050610872565b005b61030e600480360360208110156102f857600080fd5b8101908080359060200190929190505050610e8c565b604051808c73ffffffffffffffffffffffffffffffffffffffff1673ffffffffffffffffffffffffffffffffffffffff1681526020018b67ffffffffffffffff1667ffffffffffffffff1681526020018060200180602001806020018a151515158152602001891515151581526020018815151515815260200187151515158152602001861515151581526020018515151515815260200184810384528d818151815260200191508051906020019080838360005b838110156103de5780820151818401526020810190506103c3565b50505050905090810190601f16801561040b5780820380516001836020036101000a031916815260200191505b5084810383528c818151815260200191508051906020019080838360005b83811015610444578082015181840152602081019050610429565b50505050905090810190601f1680156104715780820380516001836020036101000a031916815260200191505b5084810382528b818151815260200191508051906020019080838360005b838110156104aa57808201518184015260208101905061048f565b50505050905090810190601f1680156104d75780820380516001836020036101000a031916815260200191505b509e50505050505050505050505050505060405180910390f35b6105336004803603602081101561050757600080fd5b81019080803573ffffffffffffffffffffffffffffffffffffffff169060200190929190505050611267565b6040518082815260200191505060405180910390f35b60005481565b60026040518060e001604052803373ffffffffffffffffffffffffffffffffffffffff1681526020018b67ffffffffffffffff1681526020018a81526020018981526020018881526020016000151581526020016040518060a0016040528089151581526020018815158152602001871515815260200186151581526020018515158152508152509080600181540180825580915050906001820390600052602060002090600602016000909192909190915060008201518160000160006101000a81548173ffffffffffffffffffffffffffffffffffffffff021916908373ffffffffffffffffffffffffffffffffffffffff16021790555060208201518160000160146101000a81548167ffffffffffffffff021916908367ffffffffffffffff160217905550604082015181600101908051906020019061069492919061127f565b5060608201518160020190805190602001906106b192919061127f565b5060808201518160030190805190602001906106ce92919061127f565b5060a08201518160040160006101000a81548160ff02191690831515021790555060c08201518160050160008201518160000160006101000a81548160ff02191690831515021790555060208201518160000160016101000a81548160ff02191690831515021790555060408201518160000160026101000a81548160ff02191690831515021790555060608201518160000160036101000a81548160ff02191690831515021790555060808201518160000160046101000a81548160ff02191690831515021790555050505050506000808154809291906001019190505550600160005403600160003373ffffffffffffffffffffffffffffffffffffffff1673ffffffffffffffffffffffffffffffffffffffff168152602001908152602001600020819055507f749f7d09e5a2f31da35b09a3ac06d445551c9d546a4e2411f9fbc6a41c2b024e33600160005403604051808373ffffffffffffffffffffffffffffffffffffffff1673ffffffffffffffffffffffffffffffffffffffff1681526020018281526020019250505060405180910390a1505050505050505050565b80600160003373ffffffffffffffffffffffffffffffffffffffff1673ffffffffffffffffffffffffffffffffffffffff16815260200190815260200160002054146108bd57600080fd5b600160005414610d6757600281815481106108d457fe5b9060005260206000209060060201600080820160006101000a81549073ffffffffffffffffffffffffffffffffffffffff02191690556000820160146101000a81549067ffffffffffffffff021916905560018201600061093591906112ff565b60028201600061094591906112ff565b60038201600061095591906112ff565b6004820160006101000a81549060ff021916905560058201600080820160006101000a81549060ff02191690556000820160016101000a81549060ff02191690556000820160026101000a81549060ff02191690556000820160036101000a81549060ff02191690556000820160046101000a81549060ff0219169055505050506002600160005403815481106109e857fe5b906000526020600020906006020160028281548110610a0357fe5b90600052602060002090600602016000820160009054906101000a900473ffffffffffffffffffffffffffffffffffffffff168160000160006101000a81548173ffffffffffffffffffffffffffffffffffffffff021916908373ffffffffffffffffffffffffffffffffffffffff1602179055506000820160149054906101000a900467ffffffffffffffff168160000160146101000a81548167ffffffffffffffff021916908367ffffffffffffffff16021790555060018201816001019080546001816001161561010002031660029004610ae2929190611347565b5060028201816002019080546001816001161561010002031660029004610b0a929190611347565b5060038201816003019080546001816001161561010002031660029004610b32929190611347565b506004820160009054906101000a900460ff168160040160006101000a81548160ff02191690831515021790555060058201816005016000820160009054906101000a900460ff168160000160006101000a81548160ff0219169083151502179055506000820160019054906101000a900460ff168160000160016101000a81548160ff0219169083151502179055506000820160029054906101000a900460ff168160000160026101000a81548160ff0219169083151502179055506000820160039054906101000a900460ff168160000160036101000a81548160ff0219169083151502179055506000820160049054906101000a900460ff168160000160046101000a81548160ff0219169083151502179055505050905050600260016000540381548110610c6057fe5b9060005260206000209060060201600080820160006101000a81549073ffffffffffffffffffffffffffffffffffffffff02191690556000820160146101000a81549067ffffffffffffffff0219169055600182016000610cc191906112ff565b600282016000610cd191906112ff565b600382016000610ce191906112ff565b6004820160006101000a81549060ff021916905560058201600080820160006101000a81549060ff02191690556000820160016101000a81549060ff02191690556000820160026101000a81549060ff02191690556000820160036101000a81549060ff02191690556000820160046101000a81549060ff021916905550505050610e77565b60028181548110610d7457fe5b9060005260206000209060060201600080820160006101000a81549073ffffffffffffffffffffffffffffffffffffffff02191690556000820160146101000a81549067ffffffffffffffff0219169055600182016000610dd591906112ff565b600282016000610de591906112ff565b600382016000610df591906112ff565b6004820160006101000a81549060ff021916905560058201600080820160006101000a81549060ff02191690556000820160016101000a81549060ff02191690556000820160026101000a81549060ff02191690556000820160036101000a81549060ff02191690556000820160046101000a81549060ff0219169055505050505b60008081548092919060019003919050555050565b6000806060806060600080600080600080610ea56113ce565b60028d81548110610eb257fe5b90600052602060002090600602016040518060e00160405290816000820160009054906101000a900473ffffffffffffffffffffffffffffffffffffffff1673ffffffffffffffffffffffffffffffffffffffff1673ffffffffffffffffffffffffffffffffffffffff1681526020016000820160149054906101000a900467ffffffffffffffff1667ffffffffffffffff1667ffffffffffffffff168152602001600182018054600181600116156101000203166002900480601f016020809104026020016040519081016040528092919081815260200182805460018160011615610100020316600290048015610fec5780601f10610fc157610100808354040283529160200191610fec565b820191906000526020600020905b815481529060010190602001808311610fcf57829003601f168201915b50505050508152602001600282018054600181600116156101000203166002900480601f01602080910402602001604051908101604052809291908181526020018280546001816001161561010002031660029004801561108e5780601f106110635761010080835404028352916020019161108e565b820191906000526020600020905b81548152906001019060200180831161107157829003601f168201915b50505050508152602001600382018054600181600116156101000203166002900480601f0160208091040260200160405190810160405280929190818152602001828054600181600116156101000203166002900480156111305780601f1061110557610100808354040283529160200191611130565b820191906000526020600020905b81548152906001019060200180831161111357829003601f168201915b505050505081526020016004820160009054906101000a900460ff16151515158152602001600582016040518060a00160405290816000820160009054906101000a900460ff161515151581526020016000820160019054906101000a900460ff161515151581526020016000820160029054906101000a900460ff161515151581526020016000820160039054906101000a900460ff161515151581526020016000820160049054906101000a900460ff1615151515815250508152505090506111f9611433565b8160c001519050816000015182602001518360400151846060015185608001518660a0015186600001518760200151886040015189606001518a608001518898508797508696509c509c509c509c509c509c509c509c509c509c509c50505091939597999b90929496989a50565b60016020528060005260406000206000915090505481565b828054600181600116156101000203166002900490600052602060002090601f016020900481019282601f106112c057805160ff19168380011785556112ee565b828001600101855582156112ee579182015b828111156112ed5782518255916020019190600101906112d2565b5b5090506112fb919061146c565b5090565b50805460018160011615610100020316600290046000825580601f106113255750611344565b601f016020900490600052602060002090810190611343919061146c565b5b50565b828054600181600116156101000203166002900490600052602060002090601f016020900481019282601f1061138057805485556113bd565b828001600101855582156113bd57600052602060002091601f016020900482015b828111156113bc5782548255916001019190600101906113a1565b5b5090506113ca919061146c565b5090565b6040518060e00160405280600073ffffffffffffffffffffffffffffffffffffffff168152602001600067ffffffffffffffff16815260200160608152602001606081526020016060815260200160001515815260200161142d611491565b81525090565b6040518060a001604052806000151581526020016000151581526020016000151581526020016000151581526020016000151581525090565b61148e91905b8082111561148a576000816000905550600101611472565b5090565b90565b6040518060a00160405280600015158152602001600015158152602001600015158152602001600015158152602001600015158152509056fea265627a7a723158205555b948b6e5e78050519be39291e3f07193194900a9f6249afe9a92041b0f4d64736f6c63430005100032",
  "source": "// SPDX-License-Identifier: MIT\r\npragma solidity >=0.4.21 <0.7.0;\r\n\r\nimport \"./DonorDetails.sol\";\r\n\r\ncontract DonorContract is DonorDetails {\r\n    event NewDonor(address _donor, uint256 _id);\r\n\r\n    // event donationStatusUpdateEvent(uint256 _id, bool _donationStatus);\r\n\r\n    // event deleteDonorEvent(uint256 _id);\r\n\r\n    Donor[] donors;\r\n\r\n    function createDonor(\r\n        uint64 _idProof,\r\n        string memory _bloodGroup,\r\n        string memory _name,\r\n        string memory _Address,\r\n        bool _isEyes,\r\n        bool _isKidney,\r\n        bool _isLiver,\r\n        bool _isHeart,\r\n        bool _isLungs\r\n    ) public {\r\n        donors.push(\r\n            Donor({\r\n                donor: msg.sender,\r\n                idProof: _idProof,\r\n                bloodGroup: _bloodGroup,\r\n                name: _name,\r\n                Address: _Address,\r\n                donationStatus: false,\r\n                organ: Organ({\r\n                    isEyes: _isEyes,\r\n                    isKidney: _isKidney,\r\n                    isLiver: _isLiver,\r\n                    isHeart: _isHeart,\r\n                    isLungs: _isLungs\r\n                })\r\n            })\r\n        );\r\n\r\n        totalDonors++;\r\n\r\n        donorAddressToId[msg.sender] = totalDonors - 1;\r\n\r\n        emit NewDonor(msg.sender, totalDonors - 1);\r\n    }\r\n\r\n    function deleteDonor(uint256 _id) public {\r\n        require(donorAddressToId[msg.sender] == _id);\r\n        if (totalDonors != 1) {\r\n            delete donors[_id];\r\n            donors[_id] = donors[totalDonors - 1];\r\n            delete donors[totalDonors - 1];\r\n        } else {\r\n            delete donors[_id];\r\n        }\r\n        totalDonors--;\r\n\r\n        // emit deleteDonorEvent(_id);\r\n    }\r\n\r\n    //only organisation update donation status\r\n    function updateDonationStatus(uint256 _id) internal {\r\n        donors[_id].donationStatus = true;\r\n        // emit donationStatusUpdateEvent(_id, donors[_id].donationStatus);\r\n    }\r\n\r\n    function donorDetails(uint256 _id)\r\n        public\r\n        view\r\n        returns (\r\n            address,\r\n            uint64,\r\n            string memory,\r\n            string memory,\r\n            string memory,\r\n            bool,\r\n            bool,\r\n            bool,\r\n            bool,\r\n            bool,\r\n            bool\r\n        )\r\n    {\r\n        Donor memory mydonor = donors[_id];\r\n        Organ memory myorgan = mydonor.organ;\r\n        return (\r\n            mydonor.donor,\r\n            mydonor.idProof,\r\n            mydonor.bloodGroup,\r\n            mydonor.name,\r\n            mydonor.Address,\r\n            mydonor.donationStatus,\r\n            myorgan.isEyes,\r\n            myorgan.isKidney,\r\n            myorgan.isLiver,\r\n            myorgan.isHeart,\r\n            myorgan.isLungs\r\n        );\r\n    }\r\n}\r\n",
  "sourcePath": "C:\\Users\\mothi\\Desktop\\lifeVest\\contracts\\DonorContract.sol",
  "compiler": {
    "name": "solc",
    "version": "0.5.16+commit.9c3226ce.Emscripten.clang"
  },
  "schemaVersion": "3.3.1",
  "updatedAt": "2020-10-31T09:39:59.499Z",
  "devdoc": {
    "methods": {}
  },
  "userdoc": {
    "methods": {}
  }
}