{
  "contractName": "Organ",
  "abi": [
    {
      "anonymous": false,
      "inputs": [
        {
          "indexed": true,
          "internalType": "address",
          "name": "previousOwner",
          "type": "address"
        },
        {
          "indexed": true,
          "internalType": "address",
          "name": "newOwner",
          "type": "address"
        }
      ],
      "name": "OwnershipTransferred",
      "type": "event"
    },
    {
      "constant": false,
      "inputs": [
        {
          "internalType": "address",
          "name": "_address",
          "type": "address"
        },
        {
          "internalType": "string",
          "name": "_name",
          "type": "string"
        },
        {
          "internalType": "string",
          "name": "_location",
          "type": "string"
        },
        {
          "internalType": "string",
          "name": "_ContactDetails",
          "type": "string"
        }
      ],
      "name": "addOrg",
      "outputs": [
        {
          "internalType": "bool",
          "name": "",
          "type": "bool"
        }
      ],
      "payable": false,
      "stateMutability": "nonpayable",
      "type": "function"
    },
    {
      "constant": false,
      "inputs": [
        {
          "internalType": "uint256",
          "name": "_id",
          "type": "uint256"
        }
      ],
      "name": "delOrg",
      "outputs": [
        {
          "internalType": "bool",
          "name": "",
          "type": "bool"
        }
      ],
      "payable": false,
      "stateMutability": "nonpayable",
      "type": "function"
    },
    {
      "constant": true,
      "inputs": [
        {
          "internalType": "uint256",
          "name": "",
          "type": "uint256"
        }
      ],
      "name": "eyes",
      "outputs": [
        {
          "internalType": "uint256",
          "name": "donorId",
          "type": "uint256"
        },
        {
          "internalType": "uint256",
          "name": "organisationId",
          "type": "uint256"
        }
      ],
      "payable": false,
      "stateMutability": "view",
      "type": "function"
    },
    {
      "constant": true,
      "inputs": [
        {
          "internalType": "uint256",
          "name": "",
          "type": "uint256"
        }
      ],
      "name": "heart",
      "outputs": [
        {
          "internalType": "uint256",
          "name": "donorId",
          "type": "uint256"
        },
        {
          "internalType": "uint256",
          "name": "organisationId",
          "type": "uint256"
        }
      ],
      "payable": false,
      "stateMutability": "view",
      "type": "function"
    },
    {
      "constant": true,
      "inputs": [],
      "name": "isOwner",
      "outputs": [
        {
          "internalType": "bool",
          "name": "",
          "type": "bool"
        }
      ],
      "payable": false,
      "stateMutability": "view",
      "type": "function"
    },
    {
      "constant": true,
      "inputs": [
        {
          "internalType": "uint256",
          "name": "",
          "type": "uint256"
        }
      ],
      "name": "kidney",
      "outputs": [
        {
          "internalType": "uint256",
          "name": "donorId",
          "type": "uint256"
        },
        {
          "internalType": "uint256",
          "name": "organisationId",
          "type": "uint256"
        }
      ],
      "payable": false,
      "stateMutability": "view",
      "type": "function"
    },
    {
      "constant": true,
      "inputs": [
        {
          "internalType": "uint256",
          "name": "",
          "type": "uint256"
        }
      ],
      "name": "lungs",
      "outputs": [
        {
          "internalType": "uint256",
          "name": "donorId",
          "type": "uint256"
        },
        {
          "internalType": "uint256",
          "name": "organisationId",
          "type": "uint256"
        }
      ],
      "payable": false,
      "stateMutability": "view",
      "type": "function"
    },
    {
      "constant": true,
      "inputs": [
        {
          "internalType": "uint256",
          "name": "",
          "type": "uint256"
        }
      ],
      "name": "orgs",
      "outputs": [
        {
          "internalType": "address",
          "name": "ad",
          "type": "address"
        },
        {
          "internalType": "string",
          "name": "name",
          "type": "string"
        },
        {
          "internalType": "string",
          "name": "location",
          "type": "string"
        },
        {
          "internalType": "string",
          "name": "ContactDetails",
          "type": "string"
        }
      ],
      "payable": false,
      "stateMutability": "view",
      "type": "function"
    },
    {
      "constant": true,
      "inputs": [],
      "name": "owner",
      "outputs": [
        {
          "internalType": "address",
          "name": "",
          "type": "address"
        }
      ],
      "payable": false,
      "stateMutability": "view",
      "type": "function"
    },
    {
      "constant": false,
      "inputs": [],
      "name": "renounceOwnership",
      "outputs": [],
      "payable": false,
      "stateMutability": "nonpayable",
      "type": "function"
    },
    {
      "constant": true,
      "inputs": [],
      "name": "totalOrgs",
      "outputs": [
        {
          "internalType": "uint256",
          "name": "",
          "type": "uint256"
        }
      ],
      "payable": false,
      "stateMutability": "view",
      "type": "function"
    },
    {
      "constant": false,
      "inputs": [
        {
          "internalType": "address",
          "name": "newOwner",
          "type": "address"
        }
      ],
      "name": "transferOwnership",
      "outputs": [],
      "payable": false,
      "stateMutability": "nonpayable",
      "type": "function"
    },
    {
      "constant": false,
      "inputs": [
        {
          "internalType": "uint256",
          "name": "_id",
          "type": "uint256"
        },
        {
          "internalType": "address",
          "name": "_address",
          "type": "address"
        },
        {
          "internalType": "string",
          "name": "_name",
          "type": "string"
        },
        {
          "internalType": "string",
          "name": "_location",
          "type": "string"
        },
        {
          "internalType": "string",
          "name": "_ContactDetails",
          "type": "string"
        }
      ],
      "name": "updateOrg",
      "outputs": [
        {
          "internalType": "bool",
          "name": "",
          "type": "bool"
        }
      ],
      "payable": false,
      "stateMutability": "nonpayable",
      "type": "function"
    },
    {
      "constant": false,
      "inputs": [],
      "name": "AddOrgan",
      "outputs": [
        {
          "internalType": "bool",
          "name": "",
          "type": "bool"
        }
      ],
      "payable": false,
      "stateMutability": "nonpayable",
      "type": "function"
    }
  ],
  "bytecode": "0x6080604052336000806101000a81548173ffffffffffffffffffffffffffffffffffffffff021916908373ffffffffffffffffffffffffffffffffffffffff1602179055506000809054906101000a900473ffffffffffffffffffffffffffffffffffffffff1673ffffffffffffffffffffffffffffffffffffffff16600073ffffffffffffffffffffffffffffffffffffffff167f8be0079c531659141344cd1fd0a4f28419497f9722a3daafe3b4186f6b6457e060405160405180910390a3611568806100cf6000396000f3fe608060405234801561001057600080fd5b50600436106100ea5760003560e01c80638a39349c1161008c5780638f32d59b116100665780638f32d59b1461088457806394428654146108a6578063a3053dd5146108c4578063f2fde38b1461090d576100ea565b80638a39349c146107cf5780638d17884b146107f15780638da5cb5b1461083a576100ea565b80634df75107116100c85780634df75107146101c75780634f5c2e6c146103f2578063604b3c33146105a4578063715018a6146107c5576100ea565b80630ebc6c11146100ef5780631b4d25a2146101385780633363918314610181575b600080fd5b61011b6004803603602081101561010557600080fd5b8101908080359060200190929190505050610951565b604051808381526020018281526020019250505060405180910390f35b6101646004803603602081101561014e57600080fd5b8101908080359060200190929190505050610982565b604051808381526020018281526020019250505060405180910390f35b6101ad6004803603602081101561019757600080fd5b81019080803590602001909291905050506109b3565b604051808215151515815260200191505060405180910390f35b6103d8600480360360a08110156101dd57600080fd5b8101908080359060200190929190803573ffffffffffffffffffffffffffffffffffffffff1690602001909291908035906020019064010000000081111561022457600080fd5b82018360208201111561023657600080fd5b8035906020019184600183028401116401000000008311171561025857600080fd5b91908080601f016020809104026020016040519081016040528093929190818152602001838380828437600081840152601f19601f820116905080830192505050505050509192919290803590602001906401000000008111156102bb57600080fd5b8201836020820111156102cd57600080fd5b803590602001918460018302840111640100000000831117156102ef57600080fd5b91908080601f016020809104026020016040519081016040528093929190818152602001838380828437600081840152601f19601f8201169050808301925050505050505091929192908035906020019064010000000081111561035257600080fd5b82018360208201111561036457600080fd5b8035906020019184600183028401116401000000008311171561038657600080fd5b91908080601f016020809104026020016040519081016040528093929190818152602001838380828437600081840152601f19601f820116905080830192505050505050509192919290505050610bf2565b604051808215151515815260200191505060405180910390f35b61041e6004803603602081101561040857600080fd5b8101908080359060200190929190505050610d01565b604051808573ffffffffffffffffffffffffffffffffffffffff1673ffffffffffffffffffffffffffffffffffffffff168152602001806020018060200180602001848103845287818151815260200191508051906020019080838360005b8381101561049857808201518184015260208101905061047d565b50505050905090810190601f1680156104c55780820380516001836020036101000a031916815260200191505b50848103835286818151815260200191508051906020019080838360005b838110156104fe5780820151818401526020810190506104e3565b50505050905090810190601f16801561052b5780820380516001836020036101000a031916815260200191505b50848103825285818151815260200191508051906020019080838360005b83811015610564578082015181840152602081019050610549565b50505050905090810190601f1680156105915780820380516001836020036101000a031916815260200191505b5097505050505050505060405180910390f35b6107ab600480360360808110156105ba57600080fd5b81019080803573ffffffffffffffffffffffffffffffffffffffff169060200190929190803590602001906401000000008111156105f757600080fd5b82018360208201111561060957600080fd5b8035906020019184600183028401116401000000008311171561062b57600080fd5b91908080601f016020809104026020016040519081016040528093929190818152602001838380828437600081840152601f19601f8201169050808301925050505050505091929192908035906020019064010000000081111561068e57600080fd5b8201836020820111156106a057600080fd5b803590602001918460018302840111640100000000831117156106c257600080fd5b91908080601f016020809104026020016040519081016040528093929190818152602001838380828437600081840152601f19601f8201169050808301925050505050505091929192908035906020019064010000000081111561072557600080fd5b82018360208201111561073757600080fd5b8035906020019184600183028401116401000000008311171561075957600080fd5b91908080601f016020809104026020016040519081016040528093929190818152602001838380828437600081840152601f19601f820116905080830192505050505050509192919290505050610f26565b604051808215151515815260200191505060405180910390f35b6107cd611058565b005b6107d7611128565b604051808215151515815260200191505060405180910390f35b61081d6004803603602081101561080757600080fd5b81019080803590602001909291905050506111c2565b604051808381526020018281526020019250505060405180910390f35b6108426111f3565b604051808273ffffffffffffffffffffffffffffffffffffffff1673ffffffffffffffffffffffffffffffffffffffff16815260200191505060405180910390f35b61088c61121c565b604051808215151515815260200191505060405180910390f35b6108ae611273565b6040518082815260200191505060405180910390f35b6108f0600480360360208110156108da57600080fd5b8101908080359060200190929190505050611279565b604051808381526020018281526020019250505060405180910390f35b61094f6004803603602081101561092357600080fd5b81019080803573ffffffffffffffffffffffffffffffffffffffff1690602001909291905050506112aa565b005b6006818154811061095e57fe5b90600052602060002090600202016000915090508060000154908060010154905082565b6004818154811061098f57fe5b90600052602060002090600202016000915090508060000154908060010154905082565b60006109bd61121c565b6109c657600080fd5b600282815481106109d357fe5b9060005260206000209060040201600080820160006101000a81549073ffffffffffffffffffffffffffffffffffffffff0219169055600182016000610a1991906113bf565b600282016000610a2991906113bf565b600382016000610a3991906113bf565b50506001805414610bda576002600180540381548110610a5557fe5b906000526020600020906004020160028381548110610a7057fe5b90600052602060002090600402016000820160009054906101000a900473ffffffffffffffffffffffffffffffffffffffff168160000160006101000a81548173ffffffffffffffffffffffffffffffffffffffff021916908373ffffffffffffffffffffffffffffffffffffffff16021790555060018201816001019080546001816001161561010002031660029004610b0c929190611407565b5060028201816002019080546001816001161561010002031660029004610b34929190611407565b5060038201816003019080546001816001161561010002031660029004610b5c929190611407565b509050506002600180540381548110610b7157fe5b9060005260206000209060040201600080820160006101000a81549073ffffffffffffffffffffffffffffffffffffffff0219169055600182016000610bb791906113bf565b600282016000610bc791906113bf565b600382016000610bd791906113bf565b50505b60016000815480929190600190039190505550919050565b6000610bfc61121c565b610c0557600080fd5b60405180608001604052808673ffffffffffffffffffffffffffffffffffffffff1681526020018581526020018481526020018381525060028781548110610c4957fe5b906000526020600020906004020160008201518160000160006101000a81548173ffffffffffffffffffffffffffffffffffffffff021916908373ffffffffffffffffffffffffffffffffffffffff1602179055506020820151816001019080519060200190610cba92919061148e565b506040820151816002019080519060200190610cd792919061148e565b506060820151816003019080519060200190610cf492919061148e565b5090505095945050505050565b60028181548110610d0e57fe5b90600052602060002090600402016000915090508060000160009054906101000a900473ffffffffffffffffffffffffffffffffffffffff1690806001018054600181600116156101000203166002900480601f016020809104026020016040519081016040528092919081815260200182805460018160011615610100020316600290048015610de05780601f10610db557610100808354040283529160200191610de0565b820191906000526020600020905b815481529060010190602001808311610dc357829003601f168201915b505050505090806002018054600181600116156101000203166002900480601f016020809104026020016040519081016040528092919081815260200182805460018160011615610100020316600290048015610e7e5780601f10610e5357610100808354040283529160200191610e7e565b820191906000526020600020905b815481529060010190602001808311610e6157829003601f168201915b505050505090806003018054600181600116156101000203166002900480601f016020809104026020016040519081016040528092919081815260200182805460018160011615610100020316600290048015610f1c5780601f10610ef157610100808354040283529160200191610f1c565b820191906000526020600020905b815481529060010190602001808311610eff57829003601f168201915b5050505050905084565b6000610f3061121c565b610f3957600080fd5b600260405180608001604052808773ffffffffffffffffffffffffffffffffffffffff168152602001868152602001858152602001848152509080600181540180825580915050906001820390600052602060002090600402016000909192909190915060008201518160000160006101000a81548173ffffffffffffffffffffffffffffffffffffffff021916908373ffffffffffffffffffffffffffffffffffffffff160217905550602082015181600101908051906020019061100092919061148e565b50604082015181600201908051906020019061101d92919061148e565b50606082015181600301908051906020019061103a92919061148e565b50505050600160008154809291906001019190505550949350505050565b61106061121c565b61106957600080fd5b600073ffffffffffffffffffffffffffffffffffffffff166000809054906101000a900473ffffffffffffffffffffffffffffffffffffffff1673ffffffffffffffffffffffffffffffffffffffff167f8be0079c531659141344cd1fd0a4f28419497f9722a3daafe3b4186f6b6457e060405160405180910390a360008060006101000a81548173ffffffffffffffffffffffffffffffffffffffff021916908373ffffffffffffffffffffffffffffffffffffffff160217905550565b600080600090505b6001548110156111be573373ffffffffffffffffffffffffffffffffffffffff166002828154811061115e57fe5b906000526020600020906004020160000160009054906101000a900473ffffffffffffffffffffffffffffffffffffffff1673ffffffffffffffffffffffffffffffffffffffff1614156111b157600191505b8080600101915050611130565b5090565b600581815481106111cf57fe5b90600052602060002090600202016000915090508060000154908060010154905082565b60008060009054906101000a900473ffffffffffffffffffffffffffffffffffffffff16905090565b60008060009054906101000a900473ffffffffffffffffffffffffffffffffffffffff1673ffffffffffffffffffffffffffffffffffffffff163373ffffffffffffffffffffffffffffffffffffffff1614905090565b60015481565b6003818154811061128657fe5b90600052602060002090600202016000915090508060000154908060010154905082565b6112b261121c565b6112bb57600080fd5b6112c4816112c7565b50565b600073ffffffffffffffffffffffffffffffffffffffff168173ffffffffffffffffffffffffffffffffffffffff16141561130157600080fd5b8073ffffffffffffffffffffffffffffffffffffffff166000809054906101000a900473ffffffffffffffffffffffffffffffffffffffff1673ffffffffffffffffffffffffffffffffffffffff167f8be0079c531659141344cd1fd0a4f28419497f9722a3daafe3b4186f6b6457e060405160405180910390a3806000806101000a81548173ffffffffffffffffffffffffffffffffffffffff021916908373ffffffffffffffffffffffffffffffffffffffff16021790555050565b50805460018160011615610100020316600290046000825580601f106113e55750611404565b601f016020900490600052602060002090810190611403919061150e565b5b50565b828054600181600116156101000203166002900490600052602060002090601f016020900481019282601f10611440578054855561147d565b8280016001018555821561147d57600052602060002091601f016020900482015b8281111561147c578254825591600101919060010190611461565b5b50905061148a919061150e565b5090565b828054600181600116156101000203166002900490600052602060002090601f016020900481019282601f106114cf57805160ff19168380011785556114fd565b828001600101855582156114fd579182015b828111156114fc5782518255916020019190600101906114e1565b5b50905061150a919061150e565b5090565b61153091905b8082111561152c576000816000905550600101611514565b5090565b9056fea265627a7a7231582078534dc439f8eafcbd38a382397d2ba6b47b2b3c1a4bfa75c3164d7349d6e59864736f6c63430005100032",
  "source": "pragma solidity >=0.5.0 <0.8.0;\nimport './Organisation.sol';\ncontract Organ is Organisation {\n    struct organ{\n        uint donorId;\n        uint organisationId;\n    }\n    organ[] public eyes;\n    organ[] public heart;\n    organ[] public kidney;\n    organ[] public lungs;\n\n\n    modifier orgsOnly() {\n        for (uint i = 0; i < totalOrgs; i++) {\n            if(orgs[i].ad==msg.sender){\n                _;\n            }\n        }\n    }\n\n    function AddOrgan() orgsOnly public returns (bool) {\n        return true;\n    }\n}\n",
  "sourcePath": "/home/mohan/Desktop/lifeVest/contracts/Organ.sol",
  "compiler": {
    "name": "solc",
    "version": "0.5.16+commit.9c3226ce.Emscripten.clang"
  },
  "schemaVersion": "3.3.1",
  "updatedAt": "2020-10-31T12:47:56.872Z",
  "devdoc": {
    "methods": {
      "isOwner()": {
        "return": "true if `msg.sender` is the owner of the contract."
      },
      "owner()": {
        "return": "the address of the owner."
      },
      "renounceOwnership()": {
        "details": "Allows the current owner to relinquish control of the contract."
      },
      "transferOwnership(address)": {
        "details": "Allows the current owner to transfer control of the contract to a newOwner.",
        "params": {
          "newOwner": "The address to transfer ownership to."
        }
      }
    }
  },
  "userdoc": {
    "methods": {
      "renounceOwnership()": {
        "notice": "Renouncing to ownership will leave the contract without an owner. It will not be possible to call the functions with the `onlyOwner` modifier anymore."
      }
    }
  }
}